{"contracts/Staking.sol":{"Staking":{"abi":[{"inputs":[{"internalType":"address","name":"stakingToken","type":"address"},{"internalType":"address","name":"rewardToken","type":"address"}],"stateMutability":"nonpayable","type":"constructor"},{"inputs":[],"name":"ReentrancyGuardReentrantCall","type":"error"},{"inputs":[],"name":"Staking__NeedsMoreThanZero","type":"error"},{"inputs":[],"name":"Staking__TransferFailed","type":"error"},{"inputs":[],"name":"Unstake__TransferFailed","type":"error"},{"inputs":[],"name":"REWARD_RATE","outputs":[{"internalType":"uint256","name":"","type":"uint256"}],"stateMutability":"view","type":"function"},{"inputs":[],"name":"SECONDS_IN_A_DAY","outputs":[{"internalType":"uint256","name":"","type":"uint256"}],"stateMutability":"view","type":"function"},{"inputs":[{"internalType":"address","name":"","type":"address"}],"name":"_balances","outputs":[{"internalType":"uint256","name":"","type":"uint256"}],"stateMutability":"view","type":"function"},{"inputs":[],"name":"_lastUpdateTime","outputs":[{"internalType":"uint256","name":"","type":"uint256"}],"stateMutability":"view","type":"function"},{"inputs":[],"name":"_rewardPerTokenStored","outputs":[{"internalType":"uint256","name":"","type":"uint256"}],"stateMutability":"view","type":"function"},{"inputs":[],"name":"_rewardToken","outputs":[{"internalType":"contract IERC20","name":"","type":"address"}],"stateMutability":"view","type":"function"},{"inputs":[{"internalType":"address","name":"","type":"address"}],"name":"_rewards","outputs":[{"internalType":"uint256","name":"","type":"uint256"}],"stateMutability":"view","type":"function"},{"inputs":[],"name":"_stakingToken","outputs":[{"internalType":"contract IERC20","name":"","type":"address"}],"stateMutability":"view","type":"function"},{"inputs":[],"name":"_totalSupply","outputs":[{"internalType":"uint256","name":"","type":"uint256"}],"stateMutability":"view","type":"function"},{"inputs":[{"internalType":"address","name":"","type":"address"}],"name":"_userRewardPerTokenPaid","outputs":[{"internalType":"uint256","name":"","type":"uint256"}],"stateMutability":"view","type":"function"},{"inputs":[],"name":"claim","outputs":[],"stateMutability":"nonpayable","type":"function"},{"inputs":[{"internalType":"address","name":"account","type":"address"}],"name":"gained","outputs":[{"internalType":"uint256","name":"","type":"uint256"}],"stateMutability":"view","type":"function"},{"inputs":[{"internalType":"address","name":"account","type":"address"}],"name":"getStake","outputs":[{"internalType":"uint256","name":"","type":"uint256"}],"stateMutability":"view","type":"function"},{"inputs":[],"name":"rewardPerToken","outputs":[{"internalType":"uint256","name":"","type":"uint256"}],"stateMutability":"view","type":"function"},{"inputs":[{"internalType":"uint256","name":"amount","type":"uint256"}],"name":"stake","outputs":[],"stateMutability":"nonpayable","type":"function"},{"inputs":[{"internalType":"uint256","name":"amount","type":"uint256"}],"name":"unstake","outputs":[],"stateMutability":"nonpayable","type":"function"}],"devdoc":{"errors":{"ReentrancyGuardReentrantCall()":[{"details":"Unauthorized reentrant call."}]},"kind":"dev","methods":{},"stateVariables":{"_balances":{"details":"Mapping from address to the amount the user has staked "},"_rewards":{"details":"Mapping from address to the rewards claimable for user "},"_userRewardPerTokenPaid":{"details":"Mapping from address to the amount the user has been rewarded "}},"version":1},"evm":{"bytecode":{"linkReferences":{},"object":"60806040523480156200001157600080fd5b506040516200113138038062001131833981810160405281019062000037919062000133565b600160008190555081600160006101000a81548173ffffffffffffffffffffffffffffffffffffffff021916908373ffffffffffffffffffffffffffffffffffffffff16021790555080600260006101000a81548173ffffffffffffffffffffffffffffffffffffffff021916908373ffffffffffffffffffffffffffffffffffffffff16021790555050506200017a565b600080fd5b600073ffffffffffffffffffffffffffffffffffffffff82169050919050565b6000620000fb82620000ce565b9050919050565b6200010d81620000ee565b81146200011957600080fd5b50565b6000815190506200012d8162000102565b92915050565b600080604083850312156200014d576200014c620000c9565b5b60006200015d858286016200011c565b925050602062000170858286016200011c565b9150509250929050565b610fa7806200018a6000396000f3fe608060405234801561001057600080fd5b50600436106101005760003560e01c80636ebcf60711610097578063b59c6e0e11610066578063b59c6e0e1461029d578063b7d33d85146102bb578063cd3daf9d146102eb578063f9cfa06f1461030957610100565b80636ebcf607146101f15780637a766460146102215780637d6dfb7e14610251578063a694fc3a1461028157610100565b80634e71d92d116100d35780634e71d92d1461017b5780635997bb371461018557806365d82b8a146101a35780636adafab5146101d357610100565b8063121544b9146101055780632421a9f2146101235780632e17de78146101415780633eaaf86b1461015d575b600080fd5b61010d610327565b60405161011a9190610be6565b60405180910390f35b61012b61032d565b6040516101389190610c80565b60405180910390f35b61015b60048036038101906101569190610ccc565b610353565b005b610165610586565b6040516101729190610be6565b60405180910390f35b61018361058c565b005b61018d610758565b60405161019a9190610be6565b60405180910390f35b6101bd60048036038101906101b89190610d37565b61075d565b6040516101ca9190610be6565b60405180910390f35b6101db610775565b6040516101e89190610be6565b60405180910390f35b61020b60048036038101906102069190610d37565b61077b565b6040516102189190610be6565b60405180910390f35b61023b60048036038101906102369190610d37565b610793565b6040516102489190610be6565b60405180910390f35b61026b60048036038101906102669190610d37565b6107dc565b6040516102789190610be6565b60405180910390f35b61029b60048036038101906102969190610ccc565b6107f4565b005b6102a5610a29565b6040516102b29190610c80565b60405180910390f35b6102d560048036038101906102d09190610d37565b610a4f565b6040516102e29190610be6565b60405180910390f35b6102f3610b69565b6040516103009190610be6565b60405180910390f35b610311610bc6565b60405161031e9190610be6565b60405180910390f35b60045481565b600160009054906101000a900473ffffffffffffffffffffffffffffffffffffffff1681565b3361035c610b69565b6004819055504260058190555061037281610a4f565b600760008373ffffffffffffffffffffffffffffffffffffffff1673ffffffffffffffffffffffffffffffffffffffff16815260200190815260200160002081905550600454600860008373ffffffffffffffffffffffffffffffffffffffff1673ffffffffffffffffffffffffffffffffffffffff168152602001908152602001600020819055508160008103610436576040517f9b677fa000000000000000000000000000000000000000000000000000000000815260040160405180910390fd5b82600660003373ffffffffffffffffffffffffffffffffffffffff1673ffffffffffffffffffffffffffffffffffffffff16815260200190815260200160002060008282546104859190610d93565b92505081905550826003600082825461049e9190610d93565b925050819055506000600160009054906101000a900473ffffffffffffffffffffffffffffffffffffffff1673ffffffffffffffffffffffffffffffffffffffff1663a9059cbb33866040518363ffffffff1660e01b8152600401610504929190610dd6565b6020604051808303816000875af1158015610523573d6000803e3d6000fd5b505050506040513d601f19601f820116820180604052508101906105479190610e37565b905080610580576040517fce7ec79000000000000000000000000000000000000000000000000000000000815260040160405180910390fd5b50505050565b60035481565b33610595610b69565b600481905550426005819055506105ab81610a4f565b600760008373ffffffffffffffffffffffffffffffffffffffff1673ffffffffffffffffffffffffffffffffffffffff16815260200190815260200160002081905550600454600860008373ffffffffffffffffffffffffffffffffffffffff1673ffffffffffffffffffffffffffffffffffffffff168152602001908152602001600020819055506000600760003373ffffffffffffffffffffffffffffffffffffffff1673ffffffffffffffffffffffffffffffffffffffff1681526020019081526020016000205490506000600260009054906101000a900473ffffffffffffffffffffffffffffffffffffffff1673ffffffffffffffffffffffffffffffffffffffff1663a9059cbb33846040518363ffffffff1660e01b81526004016106d7929190610dd6565b6020604051808303816000875af11580156106f6573d6000803e3d6000fd5b505050506040513d601f19601f8201168201806040525081019061071a9190610e37565b905080610753576040517feb4c684700000000000000000000000000000000000000000000000000000000815260040160405180910390fd5b505050565b606481565b60086020528060005260406000206000915090505481565b60055481565b60066020528060005260406000206000915090505481565b6000600660008373ffffffffffffffffffffffffffffffffffffffff1673ffffffffffffffffffffffffffffffffffffffff168152602001908152602001600020549050919050565b60076020528060005260406000206000915090505481565b336107fd610b69565b6004819055504260058190555061081381610a4f565b600760008373ffffffffffffffffffffffffffffffffffffffff1673ffffffffffffffffffffffffffffffffffffffff16815260200190815260200160002081905550600454600860008373ffffffffffffffffffffffffffffffffffffffff1673ffffffffffffffffffffffffffffffffffffffff1681526020019081526020016000208190555081600081036108d7576040517f9b677fa000000000000000000000000000000000000000000000000000000000815260040160405180910390fd5b82600660003373ffffffffffffffffffffffffffffffffffffffff1673ffffffffffffffffffffffffffffffffffffffff16815260200190815260200160002060008282546109269190610e64565b92505081905550826003600082825461093f9190610e64565b925050819055506000600160009054906101000a900473ffffffffffffffffffffffffffffffffffffffff1673ffffffffffffffffffffffffffffffffffffffff166323b872dd3330876040518463ffffffff1660e01b81526004016109a793929190610e98565b6020604051808303816000875af11580156109c6573d6000803e3d6000fd5b505050506040513d601f19601f820116820180604052508101906109ea9190610e37565b905080610a23576040517feb4c684700000000000000000000000000000000000000000000000000000000815260040160405180910390fd5b50505050565b600260009054906101000a900473ffffffffffffffffffffffffffffffffffffffff1681565b600080600660008473ffffffffffffffffffffffffffffffffffffffff1673ffffffffffffffffffffffffffffffffffffffff1681526020019081526020016000205490506000600860008573ffffffffffffffffffffffffffffffffffffffff1673ffffffffffffffffffffffffffffffffffffffff1681526020019081526020016000205490506000610ae2610b69565b90506000600760008773ffffffffffffffffffffffffffffffffffffffff1673ffffffffffffffffffffffffffffffffffffffff168152602001908152602001600020549050600081620151808585610b3b9190610d93565b87610b469190610ecf565b610b509190610f40565b610b5a9190610e64565b90508095505050505050919050565b60008060035403610b7e576004549050610bc3565b60035462015180606460055442610b959190610d93565b610b9f9190610ecf565b610ba99190610ecf565b610bb39190610f40565b600454610bc09190610e64565b90505b90565b6201518081565b6000819050919050565b610be081610bcd565b82525050565b6000602082019050610bfb6000830184610bd7565b92915050565b600073ffffffffffffffffffffffffffffffffffffffff82169050919050565b6000819050919050565b6000610c46610c41610c3c84610c01565b610c21565b610c01565b9050919050565b6000610c5882610c2b565b9050919050565b6000610c6a82610c4d565b9050919050565b610c7a81610c5f565b82525050565b6000602082019050610c956000830184610c71565b92915050565b600080fd5b610ca981610bcd565b8114610cb457600080fd5b50565b600081359050610cc681610ca0565b92915050565b600060208284031215610ce257610ce1610c9b565b5b6000610cf084828501610cb7565b91505092915050565b6000610d0482610c01565b9050919050565b610d1481610cf9565b8114610d1f57600080fd5b50565b600081359050610d3181610d0b565b92915050565b600060208284031215610d4d57610d4c610c9b565b5b6000610d5b84828501610d22565b91505092915050565b7f4e487b7100000000000000000000000000000000000000000000000000000000600052601160045260246000fd5b6000610d9e82610bcd565b9150610da983610bcd565b9250828203905081811115610dc157610dc0610d64565b5b92915050565b610dd081610cf9565b82525050565b6000604082019050610deb6000830185610dc7565b610df86020830184610bd7565b9392505050565b60008115159050919050565b610e1481610dff565b8114610e1f57600080fd5b50565b600081519050610e3181610e0b565b92915050565b600060208284031215610e4d57610e4c610c9b565b5b6000610e5b84828501610e22565b91505092915050565b6000610e6f82610bcd565b9150610e7a83610bcd565b9250828201905080821115610e9257610e91610d64565b5b92915050565b6000606082019050610ead6000830186610dc7565b610eba6020830185610dc7565b610ec76040830184610bd7565b949350505050565b6000610eda82610bcd565b9150610ee583610bcd565b9250828202610ef381610bcd565b91508282048414831517610f0a57610f09610d64565b5b5092915050565b7f4e487b7100000000000000000000000000000000000000000000000000000000600052601260045260246000fd5b6000610f4b82610bcd565b9150610f5683610bcd565b925082610f6657610f65610f11565b5b82820490509291505056fea2646970667358221220be091c200667003dc1c6b9ba0c23723d3b9372fb068e15174ea3dc017de48a1d64736f6c63430008180033","opcodes":"PUSH1 0x80 PUSH1 0x40 MSTORE CALLVALUE DUP1 ISZERO PUSH3 0x11 JUMPI PUSH1 0x0 DUP1 REVERT JUMPDEST POP PUSH1 0x40 MLOAD PUSH3 0x1131 CODESIZE SUB DUP1 PUSH3 0x1131 DUP4 CODECOPY DUP2 DUP2 ADD PUSH1 0x40 MSTORE DUP2 ADD SWAP1 PUSH3 0x37 SWAP2 SWAP1 PUSH3 0x133 JUMP JUMPDEST PUSH1 0x1 PUSH1 0x0 DUP2 SWAP1 SSTORE POP DUP2 PUSH1 0x1 PUSH1 0x0 PUSH2 0x100 EXP DUP2 SLOAD DUP2 PUSH20 0xFFFFFFFFFFFFFFFFFFFFFFFFFFFFFFFFFFFFFFFF MUL NOT AND SWAP1 DUP4 PUSH20 0xFFFFFFFFFFFFFFFFFFFFFFFFFFFFFFFFFFFFFFFF AND MUL OR SWAP1 SSTORE POP DUP1 PUSH1 0x2 PUSH1 0x0 PUSH2 0x100 EXP DUP2 SLOAD DUP2 PUSH20 0xFFFFFFFFFFFFFFFFFFFFFFFFFFFFFFFFFFFFFFFF MUL NOT AND SWAP1 DUP4 PUSH20 0xFFFFFFFFFFFFFFFFFFFFFFFFFFFFFFFFFFFFFFFF AND MUL OR SWAP1 SSTORE POP POP POP PUSH3 0x17A JUMP JUMPDEST PUSH1 0x0 DUP1 REVERT JUMPDEST PUSH1 0x0 PUSH20 0xFFFFFFFFFFFFFFFFFFFFFFFFFFFFFFFFFFFFFFFF DUP3 AND SWAP1 POP SWAP2 SWAP1 POP JUMP JUMPDEST PUSH1 0x0 PUSH3 0xFB DUP3 PUSH3 0xCE JUMP JUMPDEST SWAP1 POP SWAP2 SWAP1 POP JUMP JUMPDEST PUSH3 0x10D DUP2 PUSH3 0xEE JUMP JUMPDEST DUP2 EQ PUSH3 0x119 JUMPI PUSH1 0x0 DUP1 REVERT JUMPDEST POP JUMP JUMPDEST PUSH1 0x0 DUP2 MLOAD SWAP1 POP PUSH3 0x12D DUP2 PUSH3 0x102 JUMP JUMPDEST SWAP3 SWAP2 POP POP JUMP JUMPDEST PUSH1 0x0 DUP1 PUSH1 0x40 DUP4 DUP6 SUB SLT ISZERO PUSH3 0x14D JUMPI PUSH3 0x14C PUSH3 0xC9 JUMP JUMPDEST JUMPDEST PUSH1 0x0 PUSH3 0x15D DUP6 DUP3 DUP7 ADD PUSH3 0x11C JUMP JUMPDEST SWAP3 POP POP PUSH1 0x20 PUSH3 0x170 DUP6 DUP3 DUP7 ADD PUSH3 0x11C JUMP JUMPDEST SWAP2 POP POP SWAP3 POP SWAP3 SWAP1 POP JUMP JUMPDEST PUSH2 0xFA7 DUP1 PUSH3 0x18A PUSH1 0x0 CODECOPY PUSH1 0x0 RETURN INVALID PUSH1 0x80 PUSH1 0x40 MSTORE CALLVALUE DUP1 ISZERO PUSH2 0x10 JUMPI PUSH1 0x0 DUP1 REVERT JUMPDEST POP PUSH1 0x4 CALLDATASIZE LT PUSH2 0x100 JUMPI PUSH1 0x0 CALLDATALOAD PUSH1 0xE0 SHR DUP1 PUSH4 0x6EBCF607 GT PUSH2 0x97 JUMPI DUP1 PUSH4 0xB59C6E0E GT PUSH2 0x66 JUMPI DUP1 PUSH4 0xB59C6E0E EQ PUSH2 0x29D JUMPI DUP1 PUSH4 0xB7D33D85 EQ PUSH2 0x2BB JUMPI DUP1 PUSH4 0xCD3DAF9D EQ PUSH2 0x2EB JUMPI DUP1 PUSH4 0xF9CFA06F EQ PUSH2 0x309 JUMPI PUSH2 0x100 JUMP JUMPDEST DUP1 PUSH4 0x6EBCF607 EQ PUSH2 0x1F1 JUMPI DUP1 PUSH4 0x7A766460 EQ PUSH2 0x221 JUMPI DUP1 PUSH4 0x7D6DFB7E EQ PUSH2 0x251 JUMPI DUP1 PUSH4 0xA694FC3A EQ PUSH2 0x281 JUMPI PUSH2 0x100 JUMP JUMPDEST DUP1 PUSH4 0x4E71D92D GT PUSH2 0xD3 JUMPI DUP1 PUSH4 0x4E71D92D EQ PUSH2 0x17B JUMPI DUP1 PUSH4 0x5997BB37 EQ PUSH2 0x185 JUMPI DUP1 PUSH4 0x65D82B8A EQ PUSH2 0x1A3 JUMPI DUP1 PUSH4 0x6ADAFAB5 EQ PUSH2 0x1D3 JUMPI PUSH2 0x100 JUMP JUMPDEST DUP1 PUSH4 0x121544B9 EQ PUSH2 0x105 JUMPI DUP1 PUSH4 0x2421A9F2 EQ PUSH2 0x123 JUMPI DUP1 PUSH4 0x2E17DE78 EQ PUSH2 0x141 JUMPI DUP1 PUSH4 0x3EAAF86B EQ PUSH2 0x15D JUMPI JUMPDEST PUSH1 0x0 DUP1 REVERT JUMPDEST PUSH2 0x10D PUSH2 0x327 JUMP JUMPDEST PUSH1 0x40 MLOAD PUSH2 0x11A SWAP2 SWAP1 PUSH2 0xBE6 JUMP JUMPDEST PUSH1 0x40 MLOAD DUP1 SWAP2 SUB SWAP1 RETURN JUMPDEST PUSH2 0x12B PUSH2 0x32D JUMP JUMPDEST PUSH1 0x40 MLOAD PUSH2 0x138 SWAP2 SWAP1 PUSH2 0xC80 JUMP JUMPDEST PUSH1 0x40 MLOAD DUP1 SWAP2 SUB SWAP1 RETURN JUMPDEST PUSH2 0x15B PUSH1 0x4 DUP1 CALLDATASIZE SUB DUP2 ADD SWAP1 PUSH2 0x156 SWAP2 SWAP1 PUSH2 0xCCC JUMP JUMPDEST PUSH2 0x353 JUMP JUMPDEST STOP JUMPDEST PUSH2 0x165 PUSH2 0x586 JUMP JUMPDEST PUSH1 0x40 MLOAD PUSH2 0x172 SWAP2 SWAP1 PUSH2 0xBE6 JUMP JUMPDEST PUSH1 0x40 MLOAD DUP1 SWAP2 SUB SWAP1 RETURN JUMPDEST PUSH2 0x183 PUSH2 0x58C JUMP JUMPDEST STOP JUMPDEST PUSH2 0x18D PUSH2 0x758 JUMP JUMPDEST PUSH1 0x40 MLOAD PUSH2 0x19A SWAP2 SWAP1 PUSH2 0xBE6 JUMP JUMPDEST PUSH1 0x40 MLOAD DUP1 SWAP2 SUB SWAP1 RETURN JUMPDEST PUSH2 0x1BD PUSH1 0x4 DUP1 CALLDATASIZE SUB DUP2 ADD SWAP1 PUSH2 0x1B8 SWAP2 SWAP1 PUSH2 0xD37 JUMP JUMPDEST PUSH2 0x75D JUMP JUMPDEST PUSH1 0x40 MLOAD PUSH2 0x1CA SWAP2 SWAP1 PUSH2 0xBE6 JUMP JUMPDEST PUSH1 0x40 MLOAD DUP1 SWAP2 SUB SWAP1 RETURN JUMPDEST PUSH2 0x1DB PUSH2 0x775 JUMP JUMPDEST PUSH1 0x40 MLOAD PUSH2 0x1E8 SWAP2 SWAP1 PUSH2 0xBE6 JUMP JUMPDEST PUSH1 0x40 MLOAD DUP1 SWAP2 SUB SWAP1 RETURN JUMPDEST PUSH2 0x20B PUSH1 0x4 DUP1 CALLDATASIZE SUB DUP2 ADD SWAP1 PUSH2 0x206 SWAP2 SWAP1 PUSH2 0xD37 JUMP JUMPDEST PUSH2 0x77B JUMP JUMPDEST PUSH1 0x40 MLOAD PUSH2 0x218 SWAP2 SWAP1 PUSH2 0xBE6 JUMP JUMPDEST PUSH1 0x40 MLOAD DUP1 SWAP2 SUB SWAP1 RETURN JUMPDEST PUSH2 0x23B PUSH1 0x4 DUP1 CALLDATASIZE SUB DUP2 ADD SWAP1 PUSH2 0x236 SWAP2 SWAP1 PUSH2 0xD37 JUMP JUMPDEST PUSH2 0x793 JUMP JUMPDEST PUSH1 0x40 MLOAD PUSH2 0x248 SWAP2 SWAP1 PUSH2 0xBE6 JUMP JUMPDEST PUSH1 0x40 MLOAD DUP1 SWAP2 SUB SWAP1 RETURN JUMPDEST PUSH2 0x26B PUSH1 0x4 DUP1 CALLDATASIZE SUB DUP2 ADD SWAP1 PUSH2 0x266 SWAP2 SWAP1 PUSH2 0xD37 JUMP JUMPDEST PUSH2 0x7DC JUMP JUMPDEST PUSH1 0x40 MLOAD PUSH2 0x278 SWAP2 SWAP1 PUSH2 0xBE6 JUMP JUMPDEST PUSH1 0x40 MLOAD DUP1 SWAP2 SUB SWAP1 RETURN JUMPDEST PUSH2 0x29B PUSH1 0x4 DUP1 CALLDATASIZE SUB DUP2 ADD SWAP1 PUSH2 0x296 SWAP2 SWAP1 PUSH2 0xCCC JUMP JUMPDEST PUSH2 0x7F4 JUMP JUMPDEST STOP JUMPDEST PUSH2 0x2A5 PUSH2 0xA29 JUMP JUMPDEST PUSH1 0x40 MLOAD PUSH2 0x2B2 SWAP2 SWAP1 PUSH2 0xC80 JUMP JUMPDEST PUSH1 0x40 MLOAD DUP1 SWAP2 SUB SWAP1 RETURN JUMPDEST PUSH2 0x2D5 PUSH1 0x4 DUP1 CALLDATASIZE SUB DUP2 ADD SWAP1 PUSH2 0x2D0 SWAP2 SWAP1 PUSH2 0xD37 JUMP JUMPDEST PUSH2 0xA4F JUMP JUMPDEST PUSH1 0x40 MLOAD PUSH2 0x2E2 SWAP2 SWAP1 PUSH2 0xBE6 JUMP JUMPDEST PUSH1 0x40 MLOAD DUP1 SWAP2 SUB SWAP1 RETURN JUMPDEST PUSH2 0x2F3 PUSH2 0xB69 JUMP JUMPDEST PUSH1 0x40 MLOAD PUSH2 0x300 SWAP2 SWAP1 PUSH2 0xBE6 JUMP JUMPDEST PUSH1 0x40 MLOAD DUP1 SWAP2 SUB SWAP1 RETURN JUMPDEST PUSH2 0x311 PUSH2 0xBC6 JUMP JUMPDEST PUSH1 0x40 MLOAD PUSH2 0x31E SWAP2 SWAP1 PUSH2 0xBE6 JUMP JUMPDEST PUSH1 0x40 MLOAD DUP1 SWAP2 SUB SWAP1 RETURN JUMPDEST PUSH1 0x4 SLOAD DUP2 JUMP JUMPDEST PUSH1 0x1 PUSH1 0x0 SWAP1 SLOAD SWAP1 PUSH2 0x100 EXP SWAP1 DIV PUSH20 0xFFFFFFFFFFFFFFFFFFFFFFFFFFFFFFFFFFFFFFFF AND DUP2 JUMP JUMPDEST CALLER PUSH2 0x35C PUSH2 0xB69 JUMP JUMPDEST PUSH1 0x4 DUP2 SWAP1 SSTORE POP TIMESTAMP PUSH1 0x5 DUP2 SWAP1 SSTORE POP PUSH2 0x372 DUP2 PUSH2 0xA4F JUMP JUMPDEST PUSH1 0x7 PUSH1 0x0 DUP4 PUSH20 0xFFFFFFFFFFFFFFFFFFFFFFFFFFFFFFFFFFFFFFFF AND PUSH20 0xFFFFFFFFFFFFFFFFFFFFFFFFFFFFFFFFFFFFFFFF AND DUP2 MSTORE PUSH1 0x20 ADD SWAP1 DUP2 MSTORE PUSH1 0x20 ADD PUSH1 0x0 KECCAK256 DUP2 SWAP1 SSTORE POP PUSH1 0x4 SLOAD PUSH1 0x8 PUSH1 0x0 DUP4 PUSH20 0xFFFFFFFFFFFFFFFFFFFFFFFFFFFFFFFFFFFFFFFF AND PUSH20 0xFFFFFFFFFFFFFFFFFFFFFFFFFFFFFFFFFFFFFFFF AND DUP2 MSTORE PUSH1 0x20 ADD SWAP1 DUP2 MSTORE PUSH1 0x20 ADD PUSH1 0x0 KECCAK256 DUP2 SWAP1 SSTORE POP DUP2 PUSH1 0x0 DUP2 SUB PUSH2 0x436 JUMPI PUSH1 0x40 MLOAD PUSH32 0x9B677FA000000000000000000000000000000000000000000000000000000000 DUP2 MSTORE PUSH1 0x4 ADD PUSH1 0x40 MLOAD DUP1 SWAP2 SUB SWAP1 REVERT JUMPDEST DUP3 PUSH1 0x6 PUSH1 0x0 CALLER PUSH20 0xFFFFFFFFFFFFFFFFFFFFFFFFFFFFFFFFFFFFFFFF AND PUSH20 0xFFFFFFFFFFFFFFFFFFFFFFFFFFFFFFFFFFFFFFFF AND DUP2 MSTORE PUSH1 0x20 ADD SWAP1 DUP2 MSTORE PUSH1 0x20 ADD PUSH1 0x0 KECCAK256 PUSH1 0x0 DUP3 DUP3 SLOAD PUSH2 0x485 SWAP2 SWAP1 PUSH2 0xD93 JUMP JUMPDEST SWAP3 POP POP DUP2 SWAP1 SSTORE POP DUP3 PUSH1 0x3 PUSH1 0x0 DUP3 DUP3 SLOAD PUSH2 0x49E SWAP2 SWAP1 PUSH2 0xD93 JUMP JUMPDEST SWAP3 POP POP DUP2 SWAP1 SSTORE POP PUSH1 0x0 PUSH1 0x1 PUSH1 0x0 SWAP1 SLOAD SWAP1 PUSH2 0x100 EXP SWAP1 DIV PUSH20 0xFFFFFFFFFFFFFFFFFFFFFFFFFFFFFFFFFFFFFFFF AND PUSH20 0xFFFFFFFFFFFFFFFFFFFFFFFFFFFFFFFFFFFFFFFF AND PUSH4 0xA9059CBB CALLER DUP7 PUSH1 0x40 MLOAD DUP4 PUSH4 0xFFFFFFFF AND PUSH1 0xE0 SHL DUP2 MSTORE PUSH1 0x4 ADD PUSH2 0x504 SWAP3 SWAP2 SWAP1 PUSH2 0xDD6 JUMP JUMPDEST PUSH1 0x20 PUSH1 0x40 MLOAD DUP1 DUP4 SUB DUP2 PUSH1 0x0 DUP8 GAS CALL ISZERO DUP1 ISZERO PUSH2 0x523 JUMPI RETURNDATASIZE PUSH1 0x0 DUP1 RETURNDATACOPY RETURNDATASIZE PUSH1 0x0 REVERT JUMPDEST POP POP POP POP PUSH1 0x40 MLOAD RETURNDATASIZE PUSH1 0x1F NOT PUSH1 0x1F DUP3 ADD AND DUP3 ADD DUP1 PUSH1 0x40 MSTORE POP DUP2 ADD SWAP1 PUSH2 0x547 SWAP2 SWAP1 PUSH2 0xE37 JUMP JUMPDEST SWAP1 POP DUP1 PUSH2 0x580 JUMPI PUSH1 0x40 MLOAD PUSH32 0xCE7EC79000000000000000000000000000000000000000000000000000000000 DUP2 MSTORE PUSH1 0x4 ADD PUSH1 0x40 MLOAD DUP1 SWAP2 SUB SWAP1 REVERT JUMPDEST POP POP POP POP JUMP JUMPDEST PUSH1 0x3 SLOAD DUP2 JUMP JUMPDEST CALLER PUSH2 0x595 PUSH2 0xB69 JUMP JUMPDEST PUSH1 0x4 DUP2 SWAP1 SSTORE POP TIMESTAMP PUSH1 0x5 DUP2 SWAP1 SSTORE POP PUSH2 0x5AB DUP2 PUSH2 0xA4F JUMP JUMPDEST PUSH1 0x7 PUSH1 0x0 DUP4 PUSH20 0xFFFFFFFFFFFFFFFFFFFFFFFFFFFFFFFFFFFFFFFF AND PUSH20 0xFFFFFFFFFFFFFFFFFFFFFFFFFFFFFFFFFFFFFFFF AND DUP2 MSTORE PUSH1 0x20 ADD SWAP1 DUP2 MSTORE PUSH1 0x20 ADD PUSH1 0x0 KECCAK256 DUP2 SWAP1 SSTORE POP PUSH1 0x4 SLOAD PUSH1 0x8 PUSH1 0x0 DUP4 PUSH20 0xFFFFFFFFFFFFFFFFFFFFFFFFFFFFFFFFFFFFFFFF AND PUSH20 0xFFFFFFFFFFFFFFFFFFFFFFFFFFFFFFFFFFFFFFFF AND DUP2 MSTORE PUSH1 0x20 ADD SWAP1 DUP2 MSTORE PUSH1 0x20 ADD PUSH1 0x0 KECCAK256 DUP2 SWAP1 SSTORE POP PUSH1 0x0 PUSH1 0x7 PUSH1 0x0 CALLER PUSH20 0xFFFFFFFFFFFFFFFFFFFFFFFFFFFFFFFFFFFFFFFF AND PUSH20 0xFFFFFFFFFFFFFFFFFFFFFFFFFFFFFFFFFFFFFFFF AND DUP2 MSTORE PUSH1 0x20 ADD SWAP1 DUP2 MSTORE PUSH1 0x20 ADD PUSH1 0x0 KECCAK256 SLOAD SWAP1 POP PUSH1 0x0 PUSH1 0x2 PUSH1 0x0 SWAP1 SLOAD SWAP1 PUSH2 0x100 EXP SWAP1 DIV PUSH20 0xFFFFFFFFFFFFFFFFFFFFFFFFFFFFFFFFFFFFFFFF AND PUSH20 0xFFFFFFFFFFFFFFFFFFFFFFFFFFFFFFFFFFFFFFFF AND PUSH4 0xA9059CBB CALLER DUP5 PUSH1 0x40 MLOAD DUP4 PUSH4 0xFFFFFFFF AND PUSH1 0xE0 SHL DUP2 MSTORE PUSH1 0x4 ADD PUSH2 0x6D7 SWAP3 SWAP2 SWAP1 PUSH2 0xDD6 JUMP JUMPDEST PUSH1 0x20 PUSH1 0x40 MLOAD DUP1 DUP4 SUB DUP2 PUSH1 0x0 DUP8 GAS CALL ISZERO DUP1 ISZERO PUSH2 0x6F6 JUMPI RETURNDATASIZE PUSH1 0x0 DUP1 RETURNDATACOPY RETURNDATASIZE PUSH1 0x0 REVERT JUMPDEST POP POP POP POP PUSH1 0x40 MLOAD RETURNDATASIZE PUSH1 0x1F NOT PUSH1 0x1F DUP3 ADD AND DUP3 ADD DUP1 PUSH1 0x40 MSTORE POP DUP2 ADD SWAP1 PUSH2 0x71A SWAP2 SWAP1 PUSH2 0xE37 JUMP JUMPDEST SWAP1 POP DUP1 PUSH2 0x753 JUMPI PUSH1 0x40 MLOAD PUSH32 0xEB4C684700000000000000000000000000000000000000000000000000000000 DUP2 MSTORE PUSH1 0x4 ADD PUSH1 0x40 MLOAD DUP1 SWAP2 SUB SWAP1 REVERT JUMPDEST POP POP POP JUMP JUMPDEST PUSH1 0x64 DUP2 JUMP JUMPDEST PUSH1 0x8 PUSH1 0x20 MSTORE DUP1 PUSH1 0x0 MSTORE PUSH1 0x40 PUSH1 0x0 KECCAK256 PUSH1 0x0 SWAP2 POP SWAP1 POP SLOAD DUP2 JUMP JUMPDEST PUSH1 0x5 SLOAD DUP2 JUMP JUMPDEST PUSH1 0x6 PUSH1 0x20 MSTORE DUP1 PUSH1 0x0 MSTORE PUSH1 0x40 PUSH1 0x0 KECCAK256 PUSH1 0x0 SWAP2 POP SWAP1 POP SLOAD DUP2 JUMP JUMPDEST PUSH1 0x0 PUSH1 0x6 PUSH1 0x0 DUP4 PUSH20 0xFFFFFFFFFFFFFFFFFFFFFFFFFFFFFFFFFFFFFFFF AND PUSH20 0xFFFFFFFFFFFFFFFFFFFFFFFFFFFFFFFFFFFFFFFF AND DUP2 MSTORE PUSH1 0x20 ADD SWAP1 DUP2 MSTORE PUSH1 0x20 ADD PUSH1 0x0 KECCAK256 SLOAD SWAP1 POP SWAP2 SWAP1 POP JUMP JUMPDEST PUSH1 0x7 PUSH1 0x20 MSTORE DUP1 PUSH1 0x0 MSTORE PUSH1 0x40 PUSH1 0x0 KECCAK256 PUSH1 0x0 SWAP2 POP SWAP1 POP SLOAD DUP2 JUMP JUMPDEST CALLER PUSH2 0x7FD PUSH2 0xB69 JUMP JUMPDEST PUSH1 0x4 DUP2 SWAP1 SSTORE POP TIMESTAMP PUSH1 0x5 DUP2 SWAP1 SSTORE POP PUSH2 0x813 DUP2 PUSH2 0xA4F JUMP JUMPDEST PUSH1 0x7 PUSH1 0x0 DUP4 PUSH20 0xFFFFFFFFFFFFFFFFFFFFFFFFFFFFFFFFFFFFFFFF AND PUSH20 0xFFFFFFFFFFFFFFFFFFFFFFFFFFFFFFFFFFFFFFFF AND DUP2 MSTORE PUSH1 0x20 ADD SWAP1 DUP2 MSTORE PUSH1 0x20 ADD PUSH1 0x0 KECCAK256 DUP2 SWAP1 SSTORE POP PUSH1 0x4 SLOAD PUSH1 0x8 PUSH1 0x0 DUP4 PUSH20 0xFFFFFFFFFFFFFFFFFFFFFFFFFFFFFFFFFFFFFFFF AND PUSH20 0xFFFFFFFFFFFFFFFFFFFFFFFFFFFFFFFFFFFFFFFF AND DUP2 MSTORE PUSH1 0x20 ADD SWAP1 DUP2 MSTORE PUSH1 0x20 ADD PUSH1 0x0 KECCAK256 DUP2 SWAP1 SSTORE POP DUP2 PUSH1 0x0 DUP2 SUB PUSH2 0x8D7 JUMPI PUSH1 0x40 MLOAD PUSH32 0x9B677FA000000000000000000000000000000000000000000000000000000000 DUP2 MSTORE PUSH1 0x4 ADD PUSH1 0x40 MLOAD DUP1 SWAP2 SUB SWAP1 REVERT JUMPDEST DUP3 PUSH1 0x6 PUSH1 0x0 CALLER PUSH20 0xFFFFFFFFFFFFFFFFFFFFFFFFFFFFFFFFFFFFFFFF AND PUSH20 0xFFFFFFFFFFFFFFFFFFFFFFFFFFFFFFFFFFFFFFFF AND DUP2 MSTORE PUSH1 0x20 ADD SWAP1 DUP2 MSTORE PUSH1 0x20 ADD PUSH1 0x0 KECCAK256 PUSH1 0x0 DUP3 DUP3 SLOAD PUSH2 0x926 SWAP2 SWAP1 PUSH2 0xE64 JUMP JUMPDEST SWAP3 POP POP DUP2 SWAP1 SSTORE POP DUP3 PUSH1 0x3 PUSH1 0x0 DUP3 DUP3 SLOAD PUSH2 0x93F SWAP2 SWAP1 PUSH2 0xE64 JUMP JUMPDEST SWAP3 POP POP DUP2 SWAP1 SSTORE POP PUSH1 0x0 PUSH1 0x1 PUSH1 0x0 SWAP1 SLOAD SWAP1 PUSH2 0x100 EXP SWAP1 DIV PUSH20 0xFFFFFFFFFFFFFFFFFFFFFFFFFFFFFFFFFFFFFFFF AND PUSH20 0xFFFFFFFFFFFFFFFFFFFFFFFFFFFFFFFFFFFFFFFF AND PUSH4 0x23B872DD CALLER ADDRESS DUP8 PUSH1 0x40 MLOAD DUP5 PUSH4 0xFFFFFFFF AND PUSH1 0xE0 SHL DUP2 MSTORE PUSH1 0x4 ADD PUSH2 0x9A7 SWAP4 SWAP3 SWAP2 SWAP1 PUSH2 0xE98 JUMP JUMPDEST PUSH1 0x20 PUSH1 0x40 MLOAD DUP1 DUP4 SUB DUP2 PUSH1 0x0 DUP8 GAS CALL ISZERO DUP1 ISZERO PUSH2 0x9C6 JUMPI RETURNDATASIZE PUSH1 0x0 DUP1 RETURNDATACOPY RETURNDATASIZE PUSH1 0x0 REVERT JUMPDEST POP POP POP POP PUSH1 0x40 MLOAD RETURNDATASIZE PUSH1 0x1F NOT PUSH1 0x1F DUP3 ADD AND DUP3 ADD DUP1 PUSH1 0x40 MSTORE POP DUP2 ADD SWAP1 PUSH2 0x9EA SWAP2 SWAP1 PUSH2 0xE37 JUMP JUMPDEST SWAP1 POP DUP1 PUSH2 0xA23 JUMPI PUSH1 0x40 MLOAD PUSH32 0xEB4C684700000000000000000000000000000000000000000000000000000000 DUP2 MSTORE PUSH1 0x4 ADD PUSH1 0x40 MLOAD DUP1 SWAP2 SUB SWAP1 REVERT JUMPDEST POP POP POP POP JUMP JUMPDEST PUSH1 0x2 PUSH1 0x0 SWAP1 SLOAD SWAP1 PUSH2 0x100 EXP SWAP1 DIV PUSH20 0xFFFFFFFFFFFFFFFFFFFFFFFFFFFFFFFFFFFFFFFF AND DUP2 JUMP JUMPDEST PUSH1 0x0 DUP1 PUSH1 0x6 PUSH1 0x0 DUP5 PUSH20 0xFFFFFFFFFFFFFFFFFFFFFFFFFFFFFFFFFFFFFFFF AND PUSH20 0xFFFFFFFFFFFFFFFFFFFFFFFFFFFFFFFFFFFFFFFF AND DUP2 MSTORE PUSH1 0x20 ADD SWAP1 DUP2 MSTORE PUSH1 0x20 ADD PUSH1 0x0 KECCAK256 SLOAD SWAP1 POP PUSH1 0x0 PUSH1 0x8 PUSH1 0x0 DUP6 PUSH20 0xFFFFFFFFFFFFFFFFFFFFFFFFFFFFFFFFFFFFFFFF AND PUSH20 0xFFFFFFFFFFFFFFFFFFFFFFFFFFFFFFFFFFFFFFFF AND DUP2 MSTORE PUSH1 0x20 ADD SWAP1 DUP2 MSTORE PUSH1 0x20 ADD PUSH1 0x0 KECCAK256 SLOAD SWAP1 POP PUSH1 0x0 PUSH2 0xAE2 PUSH2 0xB69 JUMP JUMPDEST SWAP1 POP PUSH1 0x0 PUSH1 0x7 PUSH1 0x0 DUP8 PUSH20 0xFFFFFFFFFFFFFFFFFFFFFFFFFFFFFFFFFFFFFFFF AND PUSH20 0xFFFFFFFFFFFFFFFFFFFFFFFFFFFFFFFFFFFFFFFF AND DUP2 MSTORE PUSH1 0x20 ADD SWAP1 DUP2 MSTORE PUSH1 0x20 ADD PUSH1 0x0 KECCAK256 SLOAD SWAP1 POP PUSH1 0x0 DUP2 PUSH3 0x15180 DUP6 DUP6 PUSH2 0xB3B SWAP2 SWAP1 PUSH2 0xD93 JUMP JUMPDEST DUP8 PUSH2 0xB46 SWAP2 SWAP1 PUSH2 0xECF JUMP JUMPDEST PUSH2 0xB50 SWAP2 SWAP1 PUSH2 0xF40 JUMP JUMPDEST PUSH2 0xB5A SWAP2 SWAP1 PUSH2 0xE64 JUMP JUMPDEST SWAP1 POP DUP1 SWAP6 POP POP POP POP POP POP SWAP2 SWAP1 POP JUMP JUMPDEST PUSH1 0x0 DUP1 PUSH1 0x3 SLOAD SUB PUSH2 0xB7E JUMPI PUSH1 0x4 SLOAD SWAP1 POP PUSH2 0xBC3 JUMP JUMPDEST PUSH1 0x3 SLOAD PUSH3 0x15180 PUSH1 0x64 PUSH1 0x5 SLOAD TIMESTAMP PUSH2 0xB95 SWAP2 SWAP1 PUSH2 0xD93 JUMP JUMPDEST PUSH2 0xB9F SWAP2 SWAP1 PUSH2 0xECF JUMP JUMPDEST PUSH2 0xBA9 SWAP2 SWAP1 PUSH2 0xECF JUMP JUMPDEST PUSH2 0xBB3 SWAP2 SWAP1 PUSH2 0xF40 JUMP JUMPDEST PUSH1 0x4 SLOAD PUSH2 0xBC0 SWAP2 SWAP1 PUSH2 0xE64 JUMP JUMPDEST SWAP1 POP JUMPDEST SWAP1 JUMP JUMPDEST PUSH3 0x15180 DUP2 JUMP JUMPDEST PUSH1 0x0 DUP2 SWAP1 POP SWAP2 SWAP1 POP JUMP JUMPDEST PUSH2 0xBE0 DUP2 PUSH2 0xBCD JUMP JUMPDEST DUP3 MSTORE POP POP JUMP JUMPDEST PUSH1 0x0 PUSH1 0x20 DUP3 ADD SWAP1 POP PUSH2 0xBFB PUSH1 0x0 DUP4 ADD DUP5 PUSH2 0xBD7 JUMP JUMPDEST SWAP3 SWAP2 POP POP JUMP JUMPDEST PUSH1 0x0 PUSH20 0xFFFFFFFFFFFFFFFFFFFFFFFFFFFFFFFFFFFFFFFF DUP3 AND SWAP1 POP SWAP2 SWAP1 POP JUMP JUMPDEST PUSH1 0x0 DUP2 SWAP1 POP SWAP2 SWAP1 POP JUMP JUMPDEST PUSH1 0x0 PUSH2 0xC46 PUSH2 0xC41 PUSH2 0xC3C DUP5 PUSH2 0xC01 JUMP JUMPDEST PUSH2 0xC21 JUMP JUMPDEST PUSH2 0xC01 JUMP JUMPDEST SWAP1 POP SWAP2 SWAP1 POP JUMP JUMPDEST PUSH1 0x0 PUSH2 0xC58 DUP3 PUSH2 0xC2B JUMP JUMPDEST SWAP1 POP SWAP2 SWAP1 POP JUMP JUMPDEST PUSH1 0x0 PUSH2 0xC6A DUP3 PUSH2 0xC4D JUMP JUMPDEST SWAP1 POP SWAP2 SWAP1 POP JUMP JUMPDEST PUSH2 0xC7A DUP2 PUSH2 0xC5F JUMP JUMPDEST DUP3 MSTORE POP POP JUMP JUMPDEST PUSH1 0x0 PUSH1 0x20 DUP3 ADD SWAP1 POP PUSH2 0xC95 PUSH1 0x0 DUP4 ADD DUP5 PUSH2 0xC71 JUMP JUMPDEST SWAP3 SWAP2 POP POP JUMP JUMPDEST PUSH1 0x0 DUP1 REVERT JUMPDEST PUSH2 0xCA9 DUP2 PUSH2 0xBCD JUMP JUMPDEST DUP2 EQ PUSH2 0xCB4 JUMPI PUSH1 0x0 DUP1 REVERT JUMPDEST POP JUMP JUMPDEST PUSH1 0x0 DUP2 CALLDATALOAD SWAP1 POP PUSH2 0xCC6 DUP2 PUSH2 0xCA0 JUMP JUMPDEST SWAP3 SWAP2 POP POP JUMP JUMPDEST PUSH1 0x0 PUSH1 0x20 DUP3 DUP5 SUB SLT ISZERO PUSH2 0xCE2 JUMPI PUSH2 0xCE1 PUSH2 0xC9B JUMP JUMPDEST JUMPDEST PUSH1 0x0 PUSH2 0xCF0 DUP5 DUP3 DUP6 ADD PUSH2 0xCB7 JUMP JUMPDEST SWAP2 POP POP SWAP3 SWAP2 POP POP JUMP JUMPDEST PUSH1 0x0 PUSH2 0xD04 DUP3 PUSH2 0xC01 JUMP JUMPDEST SWAP1 POP SWAP2 SWAP1 POP JUMP JUMPDEST PUSH2 0xD14 DUP2 PUSH2 0xCF9 JUMP JUMPDEST DUP2 EQ PUSH2 0xD1F JUMPI PUSH1 0x0 DUP1 REVERT JUMPDEST POP JUMP JUMPDEST PUSH1 0x0 DUP2 CALLDATALOAD SWAP1 POP PUSH2 0xD31 DUP2 PUSH2 0xD0B JUMP JUMPDEST SWAP3 SWAP2 POP POP JUMP JUMPDEST PUSH1 0x0 PUSH1 0x20 DUP3 DUP5 SUB SLT ISZERO PUSH2 0xD4D JUMPI PUSH2 0xD4C PUSH2 0xC9B JUMP JUMPDEST JUMPDEST PUSH1 0x0 PUSH2 0xD5B DUP5 DUP3 DUP6 ADD PUSH2 0xD22 JUMP JUMPDEST SWAP2 POP POP SWAP3 SWAP2 POP POP JUMP JUMPDEST PUSH32 0x4E487B7100000000000000000000000000000000000000000000000000000000 PUSH1 0x0 MSTORE PUSH1 0x11 PUSH1 0x4 MSTORE PUSH1 0x24 PUSH1 0x0 REVERT JUMPDEST PUSH1 0x0 PUSH2 0xD9E DUP3 PUSH2 0xBCD JUMP JUMPDEST SWAP2 POP PUSH2 0xDA9 DUP4 PUSH2 0xBCD JUMP JUMPDEST SWAP3 POP DUP3 DUP3 SUB SWAP1 POP DUP2 DUP2 GT ISZERO PUSH2 0xDC1 JUMPI PUSH2 0xDC0 PUSH2 0xD64 JUMP JUMPDEST JUMPDEST SWAP3 SWAP2 POP POP JUMP JUMPDEST PUSH2 0xDD0 DUP2 PUSH2 0xCF9 JUMP JUMPDEST DUP3 MSTORE POP POP JUMP JUMPDEST PUSH1 0x0 PUSH1 0x40 DUP3 ADD SWAP1 POP PUSH2 0xDEB PUSH1 0x0 DUP4 ADD DUP6 PUSH2 0xDC7 JUMP JUMPDEST PUSH2 0xDF8 PUSH1 0x20 DUP4 ADD DUP5 PUSH2 0xBD7 JUMP JUMPDEST SWAP4 SWAP3 POP POP POP JUMP JUMPDEST PUSH1 0x0 DUP2 ISZERO ISZERO SWAP1 POP SWAP2 SWAP1 POP JUMP JUMPDEST PUSH2 0xE14 DUP2 PUSH2 0xDFF JUMP JUMPDEST DUP2 EQ PUSH2 0xE1F JUMPI PUSH1 0x0 DUP1 REVERT JUMPDEST POP JUMP JUMPDEST PUSH1 0x0 DUP2 MLOAD SWAP1 POP PUSH2 0xE31 DUP2 PUSH2 0xE0B JUMP JUMPDEST SWAP3 SWAP2 POP POP JUMP JUMPDEST PUSH1 0x0 PUSH1 0x20 DUP3 DUP5 SUB SLT ISZERO PUSH2 0xE4D JUMPI PUSH2 0xE4C PUSH2 0xC9B JUMP JUMPDEST JUMPDEST PUSH1 0x0 PUSH2 0xE5B DUP5 DUP3 DUP6 ADD PUSH2 0xE22 JUMP JUMPDEST SWAP2 POP POP SWAP3 SWAP2 POP POP JUMP JUMPDEST PUSH1 0x0 PUSH2 0xE6F DUP3 PUSH2 0xBCD JUMP JUMPDEST SWAP2 POP PUSH2 0xE7A DUP4 PUSH2 0xBCD JUMP JUMPDEST SWAP3 POP DUP3 DUP3 ADD SWAP1 POP DUP1 DUP3 GT ISZERO PUSH2 0xE92 JUMPI PUSH2 0xE91 PUSH2 0xD64 JUMP JUMPDEST JUMPDEST SWAP3 SWAP2 POP POP JUMP JUMPDEST PUSH1 0x0 PUSH1 0x60 DUP3 ADD SWAP1 POP PUSH2 0xEAD PUSH1 0x0 DUP4 ADD DUP7 PUSH2 0xDC7 JUMP JUMPDEST PUSH2 0xEBA PUSH1 0x20 DUP4 ADD DUP6 PUSH2 0xDC7 JUMP JUMPDEST PUSH2 0xEC7 PUSH1 0x40 DUP4 ADD DUP5 PUSH2 0xBD7 JUMP JUMPDEST SWAP5 SWAP4 POP POP POP POP JUMP JUMPDEST PUSH1 0x0 PUSH2 0xEDA DUP3 PUSH2 0xBCD JUMP JUMPDEST SWAP2 POP PUSH2 0xEE5 DUP4 PUSH2 0xBCD JUMP JUMPDEST SWAP3 POP DUP3 DUP3 MUL PUSH2 0xEF3 DUP2 PUSH2 0xBCD JUMP JUMPDEST SWAP2 POP DUP3 DUP3 DIV DUP5 EQ DUP4 ISZERO OR PUSH2 0xF0A JUMPI PUSH2 0xF09 PUSH2 0xD64 JUMP JUMPDEST JUMPDEST POP SWAP3 SWAP2 POP POP JUMP JUMPDEST PUSH32 0x4E487B7100000000000000000000000000000000000000000000000000000000 PUSH1 0x0 MSTORE PUSH1 0x12 PUSH1 0x4 MSTORE PUSH1 0x24 PUSH1 0x0 REVERT JUMPDEST PUSH1 0x0 PUSH2 0xF4B DUP3 PUSH2 0xBCD JUMP JUMPDEST SWAP2 POP PUSH2 0xF56 DUP4 PUSH2 0xBCD JUMP JUMPDEST SWAP3 POP DUP3 PUSH2 0xF66 JUMPI PUSH2 0xF65 PUSH2 0xF11 JUMP JUMPDEST JUMPDEST DUP3 DUP3 DIV SWAP1 POP SWAP3 SWAP2 POP POP JUMP INVALID LOG2 PUSH5 0x6970667358 0x22 SLT KECCAK256 0xBE MULMOD SHR KECCAK256 MOD PUSH8 0x3DC1C6B9BA0C23 PUSH19 0x3D3B9372FB068E15174EA3DC017DE48A1D6473 PUSH16 0x6C634300081800330000000000000000 "},"gasEstimates":{"creation":{"codeDepositCost":"801400","executionCost":"infinite","totalCost":"infinite"},"external":{"REWARD_RATE()":"374","SECONDS_IN_A_DAY()":"417","_balances(address)":"2837","_lastUpdateTime()":"2518","_rewardPerTokenStored()":"2453","_rewardToken()":"infinite","_rewards(address)":"2881","_stakingToken()":"infinite","_totalSupply()":"2519","_userRewardPerTokenPaid(address)":"2881","claim()":"infinite","gained(address)":"infinite","getStake(address)":"2886","rewardPerToken()":"infinite","stake(uint256)":"infinite","unstake(uint256)":"infinite"}},"methodIdentifiers":{"REWARD_RATE()":"5997bb37","SECONDS_IN_A_DAY()":"f9cfa06f","_balances(address)":"6ebcf607","_lastUpdateTime()":"6adafab5","_rewardPerTokenStored()":"121544b9","_rewardToken()":"b59c6e0e","_rewards(address)":"7d6dfb7e","_stakingToken()":"2421a9f2","_totalSupply()":"3eaaf86b","_userRewardPerTokenPaid(address)":"65d82b8a","claim()":"4e71d92d","gained(address)":"b7d33d85","getStake(address)":"7a766460","rewardPerToken()":"cd3daf9d","stake(uint256)":"a694fc3a","unstake(uint256)":"2e17de78"}},"storageLayout":{"storage":[{"astId":88,"contract":"contracts/Staking.sol:Staking","label":"_status","offset":0,"slot":"0","type":"t_uint256"},{"astId":161,"contract":"contracts/Staking.sol:Staking","label":"_stakingToken","offset":0,"slot":"1","type":"t_contract(IERC20)77"},{"astId":164,"contract":"contracts/Staking.sol:Staking","label":"_rewardToken","offset":0,"slot":"2","type":"t_contract(IERC20)77"},{"astId":172,"contract":"contracts/Staking.sol:Staking","label":"_totalSupply","offset":0,"slot":"3","type":"t_uint256"},{"astId":174,"contract":"contracts/Staking.sol:Staking","label":"_rewardPerTokenStored","offset":0,"slot":"4","type":"t_uint256"},{"astId":176,"contract":"contracts/Staking.sol:Staking","label":"_lastUpdateTime","offset":0,"slot":"5","type":"t_uint256"},{"astId":181,"contract":"contracts/Staking.sol:Staking","label":"_balances","offset":0,"slot":"6","type":"t_mapping(t_address,t_uint256)"},{"astId":186,"contract":"contracts/Staking.sol:Staking","label":"_rewards","offset":0,"slot":"7","type":"t_mapping(t_address,t_uint256)"},{"astId":191,"contract":"contracts/Staking.sol:Staking","label":"_userRewardPerTokenPaid","offset":0,"slot":"8","type":"t_mapping(t_address,t_uint256)"}],"types":{"t_address":{"encoding":"inplace","label":"address","numberOfBytes":"20"},"t_contract(IERC20)77":{"encoding":"inplace","label":"contract IERC20","numberOfBytes":"20"},"t_mapping(t_address,t_uint256)":{"encoding":"mapping","key":"t_address","label":"mapping(address => uint256)","numberOfBytes":"32","value":"t_uint256"},"t_uint256":{"encoding":"inplace","label":"uint256","numberOfBytes":"32"}}},"userdoc":{"kind":"user","methods":{},"version":1}}}}