{
  "_format": "hh-sol-artifact-1",
  "contractName": "Staking",
  "sourceName": "contracts/Staking.sol",
  "abi": [
    {
      "inputs": [
        {
          "internalType": "address",
          "name": "stakingToken",
          "type": "address"
        },
        {
          "internalType": "address",
          "name": "rewardToken",
          "type": "address"
        }
      ],
      "stateMutability": "nonpayable",
      "type": "constructor"
    },
    {
      "inputs": [],
      "name": "ReentrancyGuardReentrantCall",
      "type": "error"
    },
    {
      "inputs": [],
      "name": "Staking__NeedsMoreThanZero",
      "type": "error"
    },
    {
      "inputs": [],
      "name": "Staking__TransferFailed",
      "type": "error"
    },
    {
      "inputs": [],
      "name": "Unstake__TransferFailed",
      "type": "error"
    },
    {
      "inputs": [],
      "name": "REWARD_RATE",
      "outputs": [
        {
          "internalType": "uint256",
          "name": "",
          "type": "uint256"
        }
      ],
      "stateMutability": "view",
      "type": "function"
    },
    {
      "inputs": [],
      "name": "SECONDS_IN_A_DAY",
      "outputs": [
        {
          "internalType": "uint256",
          "name": "",
          "type": "uint256"
        }
      ],
      "stateMutability": "view",
      "type": "function"
    },
    {
      "inputs": [
        {
          "internalType": "address",
          "name": "",
          "type": "address"
        }
      ],
      "name": "_balances",
      "outputs": [
        {
          "internalType": "uint256",
          "name": "",
          "type": "uint256"
        }
      ],
      "stateMutability": "view",
      "type": "function"
    },
    {
      "inputs": [],
      "name": "_lastUpdateTime",
      "outputs": [
        {
          "internalType": "uint256",
          "name": "",
          "type": "uint256"
        }
      ],
      "stateMutability": "view",
      "type": "function"
    },
    {
      "inputs": [],
      "name": "_rewardPerTokenStored",
      "outputs": [
        {
          "internalType": "uint256",
          "name": "",
          "type": "uint256"
        }
      ],
      "stateMutability": "view",
      "type": "function"
    },
    {
      "inputs": [],
      "name": "_rewardToken",
      "outputs": [
        {
          "internalType": "contract IERC20",
          "name": "",
          "type": "address"
        }
      ],
      "stateMutability": "view",
      "type": "function"
    },
    {
      "inputs": [
        {
          "internalType": "address",
          "name": "",
          "type": "address"
        }
      ],
      "name": "_rewards",
      "outputs": [
        {
          "internalType": "uint256",
          "name": "",
          "type": "uint256"
        }
      ],
      "stateMutability": "view",
      "type": "function"
    },
    {
      "inputs": [],
      "name": "_stakingToken",
      "outputs": [
        {
          "internalType": "contract IERC20",
          "name": "",
          "type": "address"
        }
      ],
      "stateMutability": "view",
      "type": "function"
    },
    {
      "inputs": [],
      "name": "_totalSupply",
      "outputs": [
        {
          "internalType": "uint256",
          "name": "",
          "type": "uint256"
        }
      ],
      "stateMutability": "view",
      "type": "function"
    },
    {
      "inputs": [
        {
          "internalType": "address",
          "name": "",
          "type": "address"
        }
      ],
      "name": "_userRewardPerTokenPaid",
      "outputs": [
        {
          "internalType": "uint256",
          "name": "",
          "type": "uint256"
        }
      ],
      "stateMutability": "view",
      "type": "function"
    },
    {
      "inputs": [],
      "name": "claim",
      "outputs": [],
      "stateMutability": "nonpayable",
      "type": "function"
    },
    {
      "inputs": [
        {
          "internalType": "address",
          "name": "account",
          "type": "address"
        }
      ],
      "name": "gained",
      "outputs": [
        {
          "internalType": "uint256",
          "name": "",
          "type": "uint256"
        }
      ],
      "stateMutability": "view",
      "type": "function"
    },
    {
      "inputs": [
        {
          "internalType": "address",
          "name": "account",
          "type": "address"
        }
      ],
      "name": "getStake",
      "outputs": [
        {
          "internalType": "uint256",
          "name": "",
          "type": "uint256"
        }
      ],
      "stateMutability": "view",
      "type": "function"
    },
    {
      "inputs": [],
      "name": "rewardPerToken",
      "outputs": [
        {
          "internalType": "uint256",
          "name": "",
          "type": "uint256"
        }
      ],
      "stateMutability": "view",
      "type": "function"
    },
    {
      "inputs": [
        {
          "internalType": "uint256",
          "name": "amount",
          "type": "uint256"
        }
      ],
      "name": "stake",
      "outputs": [],
      "stateMutability": "nonpayable",
      "type": "function"
    },
    {
      "inputs": [
        {
          "internalType": "uint256",
          "name": "amount",
          "type": "uint256"
        }
      ],
      "name": "unstake",
      "outputs": [],
      "stateMutability": "nonpayable",
      "type": "function"
    }
  ],
  "bytecode": "0x60806040523480156200001157600080fd5b506040516200113138038062001131833981810160405281019062000037919062000133565b600160008190555081600160006101000a81548173ffffffffffffffffffffffffffffffffffffffff021916908373ffffffffffffffffffffffffffffffffffffffff16021790555080600260006101000a81548173ffffffffffffffffffffffffffffffffffffffff021916908373ffffffffffffffffffffffffffffffffffffffff16021790555050506200017a565b600080fd5b600073ffffffffffffffffffffffffffffffffffffffff82169050919050565b6000620000fb82620000ce565b9050919050565b6200010d81620000ee565b81146200011957600080fd5b50565b6000815190506200012d8162000102565b92915050565b600080604083850312156200014d576200014c620000c9565b5b60006200015d858286016200011c565b925050602062000170858286016200011c565b9150509250929050565b610fa7806200018a6000396000f3fe608060405234801561001057600080fd5b50600436106101005760003560e01c80636ebcf60711610097578063b59c6e0e11610066578063b59c6e0e1461029d578063b7d33d85146102bb578063cd3daf9d146102eb578063f9cfa06f1461030957610100565b80636ebcf607146101f15780637a766460146102215780637d6dfb7e14610251578063a694fc3a1461028157610100565b80634e71d92d116100d35780634e71d92d1461017b5780635997bb371461018557806365d82b8a146101a35780636adafab5146101d357610100565b8063121544b9146101055780632421a9f2146101235780632e17de78146101415780633eaaf86b1461015d575b600080fd5b61010d610327565b60405161011a9190610be6565b60405180910390f35b61012b61032d565b6040516101389190610c80565b60405180910390f35b61015b60048036038101906101569190610ccc565b610353565b005b610165610586565b6040516101729190610be6565b60405180910390f35b61018361058c565b005b61018d610758565b60405161019a9190610be6565b60405180910390f35b6101bd60048036038101906101b89190610d37565b61075d565b6040516101ca9190610be6565b60405180910390f35b6101db610775565b6040516101e89190610be6565b60405180910390f35b61020b60048036038101906102069190610d37565b61077b565b6040516102189190610be6565b60405180910390f35b61023b60048036038101906102369190610d37565b610793565b6040516102489190610be6565b60405180910390f35b61026b60048036038101906102669190610d37565b6107dc565b6040516102789190610be6565b60405180910390f35b61029b60048036038101906102969190610ccc565b6107f4565b005b6102a5610a29565b6040516102b29190610c80565b60405180910390f35b6102d560048036038101906102d09190610d37565b610a4f565b6040516102e29190610be6565b60405180910390f35b6102f3610b69565b6040516103009190610be6565b60405180910390f35b610311610bc6565b60405161031e9190610be6565b60405180910390f35b60045481565b600160009054906101000a900473ffffffffffffffffffffffffffffffffffffffff1681565b3361035c610b69565b6004819055504260058190555061037281610a4f565b600760008373ffffffffffffffffffffffffffffffffffffffff1673ffffffffffffffffffffffffffffffffffffffff16815260200190815260200160002081905550600454600860008373ffffffffffffffffffffffffffffffffffffffff1673ffffffffffffffffffffffffffffffffffffffff168152602001908152602001600020819055508160008103610436576040517f9b677fa000000000000000000000000000000000000000000000000000000000815260040160405180910390fd5b82600660003373ffffffffffffffffffffffffffffffffffffffff1673ffffffffffffffffffffffffffffffffffffffff16815260200190815260200160002060008282546104859190610d93565b92505081905550826003600082825461049e9190610d93565b925050819055506000600160009054906101000a900473ffffffffffffffffffffffffffffffffffffffff1673ffffffffffffffffffffffffffffffffffffffff1663a9059cbb33866040518363ffffffff1660e01b8152600401610504929190610dd6565b6020604051808303816000875af1158015610523573d6000803e3d6000fd5b505050506040513d601f19601f820116820180604052508101906105479190610e37565b905080610580576040517fce7ec79000000000000000000000000000000000000000000000000000000000815260040160405180910390fd5b50505050565b60035481565b33610595610b69565b600481905550426005819055506105ab81610a4f565b600760008373ffffffffffffffffffffffffffffffffffffffff1673ffffffffffffffffffffffffffffffffffffffff16815260200190815260200160002081905550600454600860008373ffffffffffffffffffffffffffffffffffffffff1673ffffffffffffffffffffffffffffffffffffffff168152602001908152602001600020819055506000600760003373ffffffffffffffffffffffffffffffffffffffff1673ffffffffffffffffffffffffffffffffffffffff1681526020019081526020016000205490506000600260009054906101000a900473ffffffffffffffffffffffffffffffffffffffff1673ffffffffffffffffffffffffffffffffffffffff1663a9059cbb33846040518363ffffffff1660e01b81526004016106d7929190610dd6565b6020604051808303816000875af11580156106f6573d6000803e3d6000fd5b505050506040513d601f19601f8201168201806040525081019061071a9190610e37565b905080610753576040517feb4c684700000000000000000000000000000000000000000000000000000000815260040160405180910390fd5b505050565b606481565b60086020528060005260406000206000915090505481565b60055481565b60066020528060005260406000206000915090505481565b6000600660008373ffffffffffffffffffffffffffffffffffffffff1673ffffffffffffffffffffffffffffffffffffffff168152602001908152602001600020549050919050565b60076020528060005260406000206000915090505481565b336107fd610b69565b6004819055504260058190555061081381610a4f565b600760008373ffffffffffffffffffffffffffffffffffffffff1673ffffffffffffffffffffffffffffffffffffffff16815260200190815260200160002081905550600454600860008373ffffffffffffffffffffffffffffffffffffffff1673ffffffffffffffffffffffffffffffffffffffff1681526020019081526020016000208190555081600081036108d7576040517f9b677fa000000000000000000000000000000000000000000000000000000000815260040160405180910390fd5b82600660003373ffffffffffffffffffffffffffffffffffffffff1673ffffffffffffffffffffffffffffffffffffffff16815260200190815260200160002060008282546109269190610e64565b92505081905550826003600082825461093f9190610e64565b925050819055506000600160009054906101000a900473ffffffffffffffffffffffffffffffffffffffff1673ffffffffffffffffffffffffffffffffffffffff166323b872dd3330876040518463ffffffff1660e01b81526004016109a793929190610e98565b6020604051808303816000875af11580156109c6573d6000803e3d6000fd5b505050506040513d601f19601f820116820180604052508101906109ea9190610e37565b905080610a23576040517feb4c684700000000000000000000000000000000000000000000000000000000815260040160405180910390fd5b50505050565b600260009054906101000a900473ffffffffffffffffffffffffffffffffffffffff1681565b600080600660008473ffffffffffffffffffffffffffffffffffffffff1673ffffffffffffffffffffffffffffffffffffffff1681526020019081526020016000205490506000600860008573ffffffffffffffffffffffffffffffffffffffff1673ffffffffffffffffffffffffffffffffffffffff1681526020019081526020016000205490506000610ae2610b69565b90506000600760008773ffffffffffffffffffffffffffffffffffffffff1673ffffffffffffffffffffffffffffffffffffffff168152602001908152602001600020549050600081620151808585610b3b9190610d93565b87610b469190610ecf565b610b509190610f40565b610b5a9190610e64565b90508095505050505050919050565b60008060035403610b7e576004549050610bc3565b60035462015180606460055442610b959190610d93565b610b9f9190610ecf565b610ba99190610ecf565b610bb39190610f40565b600454610bc09190610e64565b90505b90565b6201518081565b6000819050919050565b610be081610bcd565b82525050565b6000602082019050610bfb6000830184610bd7565b92915050565b600073ffffffffffffffffffffffffffffffffffffffff82169050919050565b6000819050919050565b6000610c46610c41610c3c84610c01565b610c21565b610c01565b9050919050565b6000610c5882610c2b565b9050919050565b6000610c6a82610c4d565b9050919050565b610c7a81610c5f565b82525050565b6000602082019050610c956000830184610c71565b92915050565b600080fd5b610ca981610bcd565b8114610cb457600080fd5b50565b600081359050610cc681610ca0565b92915050565b600060208284031215610ce257610ce1610c9b565b5b6000610cf084828501610cb7565b91505092915050565b6000610d0482610c01565b9050919050565b610d1481610cf9565b8114610d1f57600080fd5b50565b600081359050610d3181610d0b565b92915050565b600060208284031215610d4d57610d4c610c9b565b5b6000610d5b84828501610d22565b91505092915050565b7f4e487b7100000000000000000000000000000000000000000000000000000000600052601160045260246000fd5b6000610d9e82610bcd565b9150610da983610bcd565b9250828203905081811115610dc157610dc0610d64565b5b92915050565b610dd081610cf9565b82525050565b6000604082019050610deb6000830185610dc7565b610df86020830184610bd7565b9392505050565b60008115159050919050565b610e1481610dff565b8114610e1f57600080fd5b50565b600081519050610e3181610e0b565b92915050565b600060208284031215610e4d57610e4c610c9b565b5b6000610e5b84828501610e22565b91505092915050565b6000610e6f82610bcd565b9150610e7a83610bcd565b9250828201905080821115610e9257610e91610d64565b5b92915050565b6000606082019050610ead6000830186610dc7565b610eba6020830185610dc7565b610ec76040830184610bd7565b949350505050565b6000610eda82610bcd565b9150610ee583610bcd565b9250828202610ef381610bcd565b91508282048414831517610f0a57610f09610d64565b5b5092915050565b7f4e487b7100000000000000000000000000000000000000000000000000000000600052601260045260246000fd5b6000610f4b82610bcd565b9150610f5683610bcd565b925082610f6657610f65610f11565b5b82820490509291505056fea2646970667358221220be091c200667003dc1c6b9ba0c23723d3b9372fb068e15174ea3dc017de48a1d64736f6c63430008180033",
  "linkReferences": {},
  "deployedLinkReferences": {}
}